{
  "contractName": "Elections",
  "abi": [
    {
      "constant": true,
      "inputs": [
        {
          "name": "",
          "type": "uint256"
        }
      ],
      "name": "candidates",
      "outputs": [
        {
          "name": "id",
          "type": "uint256"
        },
        {
          "name": "name",
          "type": "string"
        },
        {
          "name": "voteCount",
          "type": "uint256"
        }
      ],
      "payable": false,
      "stateMutability": "view",
      "type": "function",
      "signature": "0x3477ee2e"
    },
    {
      "constant": true,
      "inputs": [
        {
          "name": "",
          "type": "address"
        }
      ],
      "name": "voters",
      "outputs": [
        {
          "name": "",
          "type": "bool"
        }
      ],
      "payable": false,
      "stateMutability": "view",
      "type": "function",
      "signature": "0xa3ec138d"
    },
    {
      "constant": true,
      "inputs": [],
      "name": "candidateCount",
      "outputs": [
        {
          "name": "",
          "type": "uint256"
        }
      ],
      "payable": false,
      "stateMutability": "view",
      "type": "function",
      "signature": "0xa9a981a3"
    },
    {
      "inputs": [],
      "payable": false,
      "stateMutability": "nonpayable",
      "type": "constructor",
      "signature": "constructor"
    },
    {
      "anonymous": false,
      "inputs": [
        {
          "indexed": false,
          "name": "id",
          "type": "uint256"
        },
        {
          "indexed": false,
          "name": "name",
          "type": "string"
        },
        {
          "indexed": false,
          "name": "voteCount",
          "type": "uint256"
        }
      ],
      "name": "CreateCandidate",
      "type": "event",
      "signature": "0x604211d70ec644ccdb1f6aed2911519f21f9b666520397bcc38b34f01b52b66a"
    },
    {
      "anonymous": false,
      "inputs": [
        {
          "indexed": false,
          "name": "add",
          "type": "address"
        },
        {
          "indexed": false,
          "name": "vote",
          "type": "bool"
        }
      ],
      "name": "votedEvent",
      "type": "event",
      "signature": "0x04ed96195cd508f8fcf6bd38f33b1d47638db4c2f3f9be6ed9a1377c2c51180f"
    },
    {
      "constant": false,
      "inputs": [
        {
          "name": "_candidateId",
          "type": "uint256"
        }
      ],
      "name": "vote",
      "outputs": [],
      "payable": false,
      "stateMutability": "nonpayable",
      "type": "function",
      "signature": "0x0121b93f"
    }
  ],
  "bytecode": "0x608060405234801561001057600080fd5b5060408051808201909152600a81527f416b7368617920536972000000000000000000000000000000000000000000006020820152610057906401000000006100a2810204565b60408051808201909152600c81527f4e696b697461204d6127616d0000000000000000000000000000000000000000602082015261009d906401000000006100a2810204565b610247565b60008054600190810180835560408051606081018252828152602080820187815282840187905293865284815291909420845181559151805192936100ef939085019291909101906101ac565b50604082015181600201559050507f604211d70ec644ccdb1f6aed2911519f21f9b666520397bcc38b34f01b52b66a6000548260006040518084815260200180602001838152602001828103825284818151815260200191508051906020019080838360005b8381101561016d578181015183820152602001610155565b50505050905090810190601f16801561019a5780820380516001836020036101000a031916815260200191505b5094505050505060405180910390a150565b828054600181600116156101000203166002900490600052602060002090601f016020900481019282601f106101ed57805160ff191683800117855561021a565b8280016001018555821561021a579182015b8281111561021a5782518255916020019190600101906101ff565b5061022692915061022a565b5090565b61024491905b808211156102265760008155600101610230565b90565b610357806102566000396000f3fe6080604052600436106100615763ffffffff7c01000000000000000000000000000000000000000000000000000000006000350416630121b93f81146100665780633477ee2e14610092578063a3ec138d14610142578063a9a981a314610196575b600080fd5b34801561007257600080fd5b506100906004803603602081101561008957600080fd5b50356101bd565b005b34801561009e57600080fd5b506100bc600480360360208110156100b557600080fd5b5035610264565b6040518084815260200180602001838152602001828103825284818151815260200191508051906020019080838360005b838110156101055781810151838201526020016100ed565b50505050905090810190601f1680156101325780820380516001836020036101000a031916815260200191505b5094505050505060405180910390f35b34801561014e57600080fd5b506101826004803603602081101561016557600080fd5b503573ffffffffffffffffffffffffffffffffffffffff16610310565b604080519115158252519081900360200190f35b3480156101a257600080fd5b506101ab610325565b60408051918252519081900360200190f35b3360009081526002602052604090205460ff16156101da57600080fd5b6000811180156101ec57506000548111155b15156101f757600080fd5b336000818152600260208181526040808420805460ff1916600190811790915586855280835293819020909201805484019055815193845283019190915280517f04ed96195cd508f8fcf6bd38f33b1d47638db4c2f3f9be6ed9a1377c2c51180f9281900390910190a150565b600160208181526000928352604092839020805481840180548651600296821615610100026000190190911695909504601f810185900485028601850190965285855290949193929091908301828280156103005780601f106102d557610100808354040283529160200191610300565b820191906000526020600020905b8154815290600101906020018083116102e357829003601f168201915b5050505050908060020154905083565b60026020526000908152604090205460ff1681565b6000548156fea165627a7a723058205fbd6d0383d5b28b2ea6882357a2e7e486c87c764c34113681980ace2c3714590029",
  "source": "pragma solidity ^0.5.0;\r\n\r\ncontract Elections{\r\n\r\n\tstruct Candidate{\r\n\t\tuint id;\r\n\t\tstring name;\r\n\t\tuint voteCount;\r\n\t}\r\n\tuint public candidateCount;\r\n\r\n\tmapping (uint => Candidate) public candidates;\r\n\tmapping (address => bool) public voters;\r\n    // Constructor\r\n    constructor () public {\r\n        // candidate = \"Candidate 1\";\r\n        addCandidate(\"Akshay Sir\");\r\n        addCandidate(\"Nikita Ma'am\");\r\n    }\r\n\r\n    event CreateCandidate(\r\n    \tuint id,\r\n\t\tstring name,\r\n\t\tuint voteCount\r\n    \t);\r\n\r\n    event votedEvent(\r\n    \taddress add,\r\n    \tbool vote\r\n    \t);\r\n\r\n    function addCandidate (string  memory _name) private {\r\n    \tcandidateCount++;\r\n    \tcandidates[candidateCount] = Candidate(candidateCount, _name, 0);\r\n    \temit CreateCandidate(candidateCount, _name, 0);\r\n    }\r\n\r\n    function vote (uint _candidateId) public {\r\n    \trequire(!voters[msg.sender]);\r\n    \trequire(_candidateId > 0 && _candidateId <= candidateCount);\r\n\r\n    \tvoters[msg.sender]=true;\r\n\r\n    \tcandidates[_candidateId].voteCount++;\r\n\r\n    \temit votedEvent(msg.sender, true);\r\n    }\r\n}",
  "sourcePath": "E:/BLOCKCHAIN/election/contracts/Elections.sol",
  "compiler": {
    "name": "solc",
    "version": "0.5.0+commit.1d4f565a.Emscripten.clang"
  },
  "schemaVersion": "3.0.1",
  "updatedAt": "2022-01-23T06:44:25.154Z",
  "devdoc": {
    "methods": {}
  },
  "userdoc": {
    "methods": {}
  }
}