{
  "contractName": "Election",
  "abi": [
    {
      "constant": true,
      "inputs": [
        {
          "name": "",
          "type": "uint256"
        }
      ],
      "name": "candidates",
      "outputs": [
        {
          "name": "id",
          "type": "uint256"
        },
        {
          "name": "name",
          "type": "string"
        },
        {
          "name": "voteCount",
          "type": "uint256"
        }
      ],
      "payable": false,
      "stateMutability": "view",
      "type": "function"
    },
    {
      "constant": true,
      "inputs": [],
      "name": "candidateCount",
      "outputs": [
        {
          "name": "",
          "type": "uint256"
        }
      ],
      "payable": false,
      "stateMutability": "view",
      "type": "function"
    },
    {
      "inputs": [],
      "payable": false,
      "stateMutability": "nonpayable",
      "type": "constructor"
    }
  ],
  "bytecode": "0x608060405234801561001057600080fd5b5060408051808201909152600a81527f416b7368617920536972000000000000000000000000000000000000000000006020820152610057906401000000006100a2810204565b60408051808201909152600c81527f4e696b697461204d6127616d0000000000000000000000000000000000000000602082015261009d906401000000006100a2810204565b61019b565b60008054600190810180835560408051606081018252828152602080820187815282840187905293865284815291909420845181559151805192936100ef93908501929190910190610100565b506040820151816002015590505050565b828054600181600116156101000203166002900490600052602060002090601f016020900481019282601f1061014157805160ff191683800117855561016e565b8280016001018555821561016e579182015b8281111561016e578251825591602001919060010190610153565b5061017a92915061017e565b5090565b61019891905b8082111561017a5760008155600101610184565b90565b610205806101aa6000396000f3fe60806040526004361061004b5763ffffffff7c01000000000000000000000000000000000000000000000000000000006000350416633477ee2e8114610050578063a9a981a314610100575b600080fd5b34801561005c57600080fd5b5061007a6004803603602081101561007357600080fd5b5035610127565b6040518084815260200180602001838152602001828103825284818151815260200191508051906020019080838360005b838110156100c35781810151838201526020016100ab565b50505050905090810190601f1680156100f05780820380516001836020036101000a031916815260200191505b5094505050505060405180910390f35b34801561010c57600080fd5b506101156101d3565b60408051918252519081900360200190f35b600160208181526000928352604092839020805481840180548651600296821615610100026000190190911695909504601f810185900485028601850190965285855290949193929091908301828280156101c35780601f10610198576101008083540402835291602001916101c3565b820191906000526020600020905b8154815290600101906020018083116101a657829003601f168201915b5050505050908060020154905083565b6000548156fea165627a7a7230582096af70d6d118a89ea956677eb16e338374c401b5d04defd0a014f1408abf50480029",
  "source": "pragma solidity ^0.5.0;\r\n\r\ncontract Election{\r\n\r\n\tstruct Candidate{\r\n\t\tuint id;\r\n\t\tstring name;\r\n\t\tuint voteCount;\r\n\t}\r\n\tuint public candidateCount;\r\n\r\n\tmapping (uint => Candidate) public candidates;\r\n    // Constructor\r\n    constructor () public {\r\n        // candidate = \"Candidate 1\";\r\n        addCandidate(\"Akshay Sir\");\r\n        addCandidate(\"Nikita Ma'am\");\r\n    }\r\n\r\n    function addCandidate (string  memory _name) private {\r\n    \tcandidateCount++;\r\n    \tcandidates[candidateCount] = Candidate(candidateCount, _name, 0);\r\n    }\r\n}",
  "sourcePath": "E:/BLOCKCHAIN/election/contracts/Elections.sol",
  "compiler": {
    "name": "solc",
    "version": "0.5.0+commit.1d4f565a.Emscripten.clang"
  },
  "schemaVersion": "3.0.1",
  "updatedAt": "2022-01-22T12:48:35.379Z",
  "devdoc": {
    "methods": {}
  },
  "userdoc": {
    "methods": {}
  }
}